:020000042001D9
:100000001711FF5F13010100EF00E00201A00111D1
:1000100006CE22CC00102326A4FE11A001008327C7
:10002000C4FE1387F7FF2326E4FEEDFB0100F24038
:10003000624405618280411106C622C40008B727C8
:100040000110938787039843B7270110938787038D
:100050001377F7FD98C3B727011091079843B72787
:10006000011091071377F7FD98C3B7270110A10777
:100070009843B7270110A1071367070298C3B72752
:100080000110B1079843B7270110B10713670702A2
:1000900098C3B7470F0013850724953FB727011072
:1000A000B1079843B7270110B1071377F7FD98C33D
:0C00B000B7470F0013850724993FD1B714
:0400000520010000D6
:00000001FF
